{
  "contractName": "kyc",
  "abi": [
    {
      "constant": true,
      "inputs": [
        {
          "name": "",
          "type": "address"
        }
      ],
      "name": "banks",
      "outputs": [
        {
          "name": "ethAddress",
          "type": "address"
        },
        {
          "name": "bankName",
          "type": "string"
        },
        {
          "name": "regNumber",
          "type": "string"
        },
        {
          "name": "rating",
          "type": "uint256"
        },
        {
          "name": "kycCount",
          "type": "uint256"
        },
        {
          "name": "upvotes",
          "type": "uint256"
        }
      ],
      "payable": false,
      "stateMutability": "view",
      "type": "function",
      "signature": "0x80c3b8c2"
    },
    {
      "constant": true,
      "inputs": [
        {
          "name": "",
          "type": "string"
        }
      ],
      "name": "customers",
      "outputs": [
        {
          "name": "userName",
          "type": "string"
        },
        {
          "name": "data_hash",
          "type": "string"
        },
        {
          "name": "upvotes",
          "type": "uint8"
        },
        {
          "name": "rating",
          "type": "uint256"
        },
        {
          "name": "bank",
          "type": "address"
        },
        {
          "name": "password",
          "type": "string"
        },
        {
          "name": "lastChanged",
          "type": "address"
        },
        {
          "name": "timestamp",
          "type": "uint256"
        }
      ],
      "payable": false,
      "stateMutability": "view",
      "type": "function",
      "signature": "0xa82c98d0"
    },
    {
      "constant": true,
      "inputs": [
        {
          "name": "",
          "type": "string"
        }
      ],
      "name": "kycRequests",
      "outputs": [
        {
          "name": "userName",
          "type": "string"
        },
        {
          "name": "data_hash",
          "type": "string"
        },
        {
          "name": "bank",
          "type": "address"
        },
        {
          "name": "isAllowed",
          "type": "bool"
        }
      ],
      "payable": false,
      "stateMutability": "view",
      "type": "function",
      "signature": "0xe51d4a44"
    },
    {
      "inputs": [],
      "payable": false,
      "stateMutability": "nonpayable",
      "type": "constructor",
      "signature": "constructor"
    },
    {
      "constant": false,
      "inputs": [
        {
          "name": "_userName",
          "type": "string"
        },
        {
          "name": "_customerData",
          "type": "string"
        }
      ],
      "name": "addKycRequest",
      "outputs": [
        {
          "name": "",
          "type": "uint8"
        }
      ],
      "payable": false,
      "stateMutability": "nonpayable",
      "type": "function",
      "signature": "0xd4a46c51"
    },
    {
      "constant": false,
      "inputs": [
        {
          "name": "_userName",
          "type": "string"
        },
        {
          "name": "_customerData",
          "type": "string"
        }
      ],
      "name": "removeKYCRequest",
      "outputs": [
        {
          "name": "",
          "type": "uint8"
        }
      ],
      "payable": false,
      "stateMutability": "nonpayable",
      "type": "function",
      "signature": "0xdc4009a4"
    },
    {
      "constant": true,
      "inputs": [],
      "name": "returnAdmin",
      "outputs": [
        {
          "name": "",
          "type": "address"
        }
      ],
      "payable": false,
      "stateMutability": "view",
      "type": "function",
      "signature": "0x607cec49"
    },
    {
      "constant": false,
      "inputs": [
        {
          "name": "_userName",
          "type": "string"
        },
        {
          "name": "_customerData",
          "type": "string"
        }
      ],
      "name": "addCustomer",
      "outputs": [
        {
          "name": "",
          "type": "uint8"
        }
      ],
      "payable": false,
      "stateMutability": "nonpayable",
      "type": "function",
      "signature": "0x3190abc0"
    },
    {
      "constant": false,
      "inputs": [
        {
          "name": "_userName",
          "type": "string"
        }
      ],
      "name": "removeCustomer",
      "outputs": [
        {
          "name": "",
          "type": "uint8"
        }
      ],
      "payable": false,
      "stateMutability": "nonpayable",
      "type": "function",
      "signature": "0xfc55ea9d"
    },
    {
      "constant": false,
      "inputs": [
        {
          "name": "_userName",
          "type": "string"
        },
        {
          "name": "_newcustomerData",
          "type": "string"
        }
      ],
      "name": "modifyCustomer",
      "outputs": [
        {
          "name": "",
          "type": "uint8"
        }
      ],
      "payable": false,
      "stateMutability": "nonpayable",
      "type": "function",
      "signature": "0xf72860ca"
    },
    {
      "constant": true,
      "inputs": [
        {
          "name": "_userName",
          "type": "string"
        }
      ],
      "name": "getCustomerRating",
      "outputs": [
        {
          "name": "",
          "type": "uint256"
        }
      ],
      "payable": false,
      "stateMutability": "view",
      "type": "function",
      "signature": "0x8eafe0f0"
    },
    {
      "constant": true,
      "inputs": [
        {
          "name": "_userName",
          "type": "string"
        },
        {
          "name": "_password",
          "type": "string"
        }
      ],
      "name": "viewCustomer",
      "outputs": [
        {
          "name": "",
          "type": "string"
        }
      ],
      "payable": false,
      "stateMutability": "view",
      "type": "function",
      "signature": "0x1f2c141a"
    },
    {
      "constant": true,
      "inputs": [
        {
          "name": "_userName",
          "type": "string"
        }
      ],
      "name": "retrieveHistoryOf",
      "outputs": [
        {
          "name": "",
          "type": "address"
        },
        {
          "name": "",
          "type": "string"
        },
        {
          "name": "",
          "type": "string"
        }
      ],
      "payable": false,
      "stateMutability": "view",
      "type": "function",
      "signature": "0xe4bac0f4"
    },
    {
      "constant": false,
      "inputs": [
        {
          "name": "_userName",
          "type": "string"
        },
        {
          "name": "_password",
          "type": "string"
        }
      ],
      "name": "setCustomerPassword",
      "outputs": [
        {
          "name": "",
          "type": "uint256"
        }
      ],
      "payable": false,
      "stateMutability": "nonpayable",
      "type": "function",
      "signature": "0xdef12115"
    },
    {
      "constant": false,
      "inputs": [
        {
          "name": "_bankAddr",
          "type": "address"
        }
      ],
      "name": "addUpvoteTo",
      "outputs": [
        {
          "name": "",
          "type": "uint256"
        }
      ],
      "payable": true,
      "stateMutability": "payable",
      "type": "function",
      "signature": "0xa58ccc19"
    },
    {
      "constant": true,
      "inputs": [
        {
          "name": "_address",
          "type": "address"
        }
      ],
      "name": "getBankRating",
      "outputs": [
        {
          "name": "",
          "type": "uint256"
        }
      ],
      "payable": false,
      "stateMutability": "view",
      "type": "function",
      "signature": "0xb8144a72"
    },
    {
      "constant": true,
      "inputs": [
        {
          "name": "_bankAddr",
          "type": "address"
        }
      ],
      "name": "getBankDetails",
      "outputs": [
        {
          "components": [
            {
              "name": "ethAddress",
              "type": "address"
            },
            {
              "name": "bankName",
              "type": "string"
            },
            {
              "name": "regNumber",
              "type": "string"
            },
            {
              "name": "rating",
              "type": "uint256"
            },
            {
              "name": "kycCount",
              "type": "uint256"
            },
            {
              "name": "upvotes",
              "type": "uint256"
            }
          ],
          "name": "",
          "type": "tuple[]"
        }
      ],
      "payable": false,
      "stateMutability": "view",
      "type": "function",
      "signature": "0x15101e02"
    },
    {
      "constant": false,
      "inputs": [
        {
          "name": "_bankAddr",
          "type": "address"
        }
      ],
      "name": "getBankRequests",
      "outputs": [
        {
          "components": [
            {
              "name": "userName",
              "type": "string"
            },
            {
              "name": "data_hash",
              "type": "string"
            },
            {
              "name": "bank",
              "type": "address"
            },
            {
              "name": "isAllowed",
              "type": "bool"
            }
          ],
          "name": "",
          "type": "tuple[]"
        }
      ],
      "payable": false,
      "stateMutability": "nonpayable",
      "type": "function",
      "signature": "0x628e09ad"
    },
    {
      "constant": false,
      "inputs": [
        {
          "name": "_userName",
          "type": "string"
        }
      ],
      "name": "Upvote",
      "outputs": [
        {
          "name": "",
          "type": "uint8"
        }
      ],
      "payable": false,
      "stateMutability": "nonpayable",
      "type": "function",
      "signature": "0x2ec1fbf0"
    },
    {
      "constant": false,
      "inputs": [
        {
          "name": "_bankName",
          "type": "string"
        },
        {
          "name": "_bankAddr",
          "type": "address"
        },
        {
          "name": "_bankRegNo",
          "type": "string"
        }
      ],
      "name": "addbank",
      "outputs": [
        {
          "name": "",
          "type": "uint256"
        }
      ],
      "payable": false,
      "stateMutability": "nonpayable",
      "type": "function",
      "signature": "0xc98b965e"
    },
    {
      "constant": false,
      "inputs": [
        {
          "name": "_bankAddr",
          "type": "address"
        }
      ],
      "name": "deleteBank",
      "outputs": [
        {
          "name": "",
          "type": "uint8"
        }
      ],
      "payable": false,
      "stateMutability": "nonpayable",
      "type": "function",
      "signature": "0xb2d84a15"
    }
  ],
  "bytecode": "0x608060405234801561001057600080fd5b50336000806101000a81548173ffffffffffffffffffffffffffffffffffffffff021916908373ffffffffffffffffffffffffffffffffffffffff160217905550614a44806100606000396000f3fe60806040526004361061013c576000357c010000000000000000000000000000000000000000000000000000000090048063b2d84a15116100bd578063def1211511610081578063def12115146104c1578063e4bac0f4146104fe578063e51d4a441461053d578063f72860ca1461057d578063fc55ea9d146105ba5761013c565b8063b2d84a1514610390578063b8144a72146103cd578063c98b965e1461040a578063d4a46c5114610447578063dc4009a4146104845761013c565b8063628e09ad11610104578063628e09ad1461026057806380c3b8c21461029d5780638eafe0f0146102df578063a58ccc191461031c578063a82c98d01461034c5761013c565b806315101e02146101415780631f2c141a1461017e5780632ec1fbf0146101bb5780633190abc0146101f8578063607cec4914610235575b600080fd5b34801561014d57600080fd5b5061016860048036036101639190810190613e33565b6105f7565b60405161017591906145f1565b60405180910390f35b34801561018a57600080fd5b506101a560048036036101a09190810190613f5d565b610bc0565b6040516101b29190614635565b60405180910390f35b3480156101c757600080fd5b506101e260048036036101dd9190810190613e9d565b610e16565b6040516101ef91906147d8565b60405180910390f35b34801561020457600080fd5b5061021f600480360361021a9190810190613f5d565b611085565b60405161022c91906147d8565b60405180910390f35b34801561024157600080fd5b5061024a61145e565b6040516102579190614522565b60405180910390f35b34801561026c57600080fd5b5061028760048036036102829190810190613e33565b611487565b6040516102949190614613565b60405180910390f35b3480156102a957600080fd5b506102c460048036036102bf9190810190613e33565b6118b3565b6040516102d696959493929190614582565b60405180910390f35b3480156102eb57600080fd5b5061030660048036036103019190810190613e9d565b611a3f565b60405161031391906147bd565b60405180910390f35b61033660048036036103319190810190613e33565b611b66565b60405161034391906147bd565b60405180910390f35b34801561035857600080fd5b50610373600480360361036e9190810190613e5c565b611efd565b6040516103879897969594939291906146aa565b60405180910390f35b34801561039c57600080fd5b506103b760048036036103b29190810190613e33565b612170565b6040516103c491906147d8565b60405180910390f35b3480156103d957600080fd5b506103f460048036036103ef9190810190613e33565b61240c565b60405161040191906147bd565b60405180910390f35b34801561041657600080fd5b50610431600480360361042c9190810190613ede565b6124ef565b60405161043e91906147bd565b60405180910390f35b34801561045357600080fd5b5061046e60048036036104699190810190613f5d565b61288f565b60405161047b91906147d8565b60405180910390f35b34801561049057600080fd5b506104ab60048036036104a69190810190613f5d565b612b2e565b6040516104b891906147d8565b60405180910390f35b3480156104cd57600080fd5b506104e860048036036104e39190810190613f5d565b612cb1565b6040516104f591906147bd565b60405180910390f35b34801561050a57600080fd5b5061052560048036036105209190810190613e9d565b612f0f565b6040516105349392919061453d565b60405180910390f35b34801561054957600080fd5b50610564600480360361055f9190810190613e5c565b613203565b6040516105749493929190614657565b60405180910390f35b34801561058957600080fd5b506105a4600480360361059f9190810190613f5d565b6133a6565b6040516105b191906147d8565b60405180910390f35b3480156105c657600080fd5b506105e160048036036105dc9190810190613e9d565b61371f565b6040516105ee91906147d8565b60405180910390f35b60608060048054905060405190808252806020026020018201604052801561063957816020015b610626613af2565b81526020019060019003908161061e5790505b509050600080905060008090505b600480549050811015610bb5578473ffffffffffffffffffffffffffffffffffffffff16600360006004848154811061067c57fe5b9060005260206000200160009054906101000a900473ffffffffffffffffffffffffffffffffffffffff1673ffffffffffffffffffffffffffffffffffffffff1673ffffffffffffffffffffffffffffffffffffffff16815260200190815260200160002060000160009054906101000a900473ffffffffffffffffffffffffffffffffffffffff1673ffffffffffffffffffffffffffffffffffffffff161415610ba8576040518060c00160405280600360006004858154811061073d57fe5b9060005260206000200160009054906101000a900473ffffffffffffffffffffffffffffffffffffffff1673ffffffffffffffffffffffffffffffffffffffff1673ffffffffffffffffffffffffffffffffffffffff16815260200190815260200160002060000160009054906101000a900473ffffffffffffffffffffffffffffffffffffffff1673ffffffffffffffffffffffffffffffffffffffff16815260200160036000600485815481106107f257fe5b9060005260206000200160009054906101000a900473ffffffffffffffffffffffffffffffffffffffff1673ffffffffffffffffffffffffffffffffffffffff1673ffffffffffffffffffffffffffffffffffffffff1681526020019081526020016000206001018054600181600116156101000203166002900480601f0160208091040260200160405190810160405280929190818152602001828054600181600116156101000203166002900480156108ee5780601f106108c3576101008083540402835291602001916108ee565b820191906000526020600020905b8154815290600101906020018083116108d157829003601f168201915b50505050508152602001600360006004858154811061090957fe5b9060005260206000200160009054906101000a900473ffffffffffffffffffffffffffffffffffffffff1673ffffffffffffffffffffffffffffffffffffffff1673ffffffffffffffffffffffffffffffffffffffff1681526020019081526020016000206002018054600181600116156101000203166002900480601f016020809104026020016040519081016040528092919081815260200182805460018160011615610100020316600290048015610a055780601f106109da57610100808354040283529160200191610a05565b820191906000526020600020905b8154815290600101906020018083116109e857829003601f168201915b505050505081526020016003600060048581548110610a2057fe5b9060005260206000200160009054906101000a900473ffffffffffffffffffffffffffffffffffffffff1673ffffffffffffffffffffffffffffffffffffffff1673ffffffffffffffffffffffffffffffffffffffff1681526020019081526020016000206003015481526020016003600060048581548110610a9f57fe5b9060005260206000200160009054906101000a900473ffffffffffffffffffffffffffffffffffffffff1673ffffffffffffffffffffffffffffffffffffffff1673ffffffffffffffffffffffffffffffffffffffff1681526020019081526020016000206004015481526020016003600060048581548110610b1e57fe5b9060005260206000200160009054906101000a900473ffffffffffffffffffffffffffffffffffffffff1673ffffffffffffffffffffffffffffffffffffffff1673ffffffffffffffffffffffffffffffffffffffff16815260200190815260200160002060050154815250838380600101945081518110610b9c57fe5b60200260200101819052505b8080600101915050610647565b508192505050919050565b6060610bec600184604051610bd591906144f4565b908152602001604051809103902060050183613974565b15610cb257600183604051610c0191906144f4565b90815260200160405180910390206001018054600181600116156101000203166002900480601f016020809104026020016040519081016040528092919081815260200182805460018160011615610100020316600290048015610ca65780601f10610c7b57610100808354040283529160200191610ca6565b820191906000526020600020905b815481529060010190602001808311610c8957829003601f168201915b50505050509050610e10565b610d11600184604051610cc591906144f4565b90815260200160405180910390206005016040518060400160405280600181526020017f3000000000000000000000000000000000000000000000000000000000000000815250613974565b15610dd757600183604051610d2691906144f4565b90815260200160405180910390206001018054600181600116156101000203166002900480601f016020809104026020016040519081016040528092919081815260200182805460018160011615610100020316600290048015610dcb5780601f10610da057610100808354040283529160200191610dcb565b820191906000526020600020905b815481529060010190602001808311610dae57829003601f168201915b50505050509050610e10565b6040518060400160405280600181526020017f300000000000000000000000000000000000000000000000000000000000000081525090505b92915050565b6000806000905060008090505b600480549050811015610ead573373ffffffffffffffffffffffffffffffffffffffff1660048281548110610e5457fe5b9060005260206000200160009054906101000a900473ffffffffffffffffffffffffffffffffffffffff1673ffffffffffffffffffffffffffffffffffffffff161415610ea057600191505b8080600101915050610e23565b506000811415610ec1576000915050611080565b60008090505b60028054905081101561107957610ef460028281548110610ee457fe5b9060005260206000200185613974565b1561106c57600184604051610f0991906144f4565b9081526020016040518091039020600201600081819054906101000a900460ff168092919060010191906101000a81548160ff021916908360ff16021790555050600184604051610f5a91906144f4565b908152602001604051809103902060020160009054906101000a900460ff1660ff16600185604051610f8c91906144f4565b90815260200160405180910390206003018190555042600785604051610fb291906144f4565b908152602001604051809103902060003373ffffffffffffffffffffffffffffffffffffffff1673ffffffffffffffffffffffffffffffffffffffff168152602001908152602001600020819055503360018560405161101291906144f4565b908152602001604051809103902060060160006101000a81548173ffffffffffffffffffffffffffffffffffffffff021916908373ffffffffffffffffffffffffffffffffffffffff160217905550600192505050611080565b8080600101915050610ec7565b5060009150505b919050565b60006110b160018460405161109a91906144f4565b908152602001604051809103902060010183613974565b156110bf5760009050611458565b600080905060008090505b600480549050811015611154573373ffffffffffffffffffffffffffffffffffffffff16600482815481106110fb57fe5b9060005260206000200160009054906101000a900473ffffffffffffffffffffffffffffffffffffffff1673ffffffffffffffffffffffffffffffffffffffff16141561114757600191505b80806001019150506110ca565b506000811415611168576000915050611458565b6001151560058460405161117c91906144f4565b908152602001604051809103902060020160149054906101000a900460ff161515146111dd576040517f08c379a00000000000000000000000000000000000000000000000000000000081526004016111d49061477d565b60405180910390fd5b6005836040516111ed91906144f4565b908152602001604051809103902060020160149054906101000a900460ff1615611452578360018560405161122291906144f4565b90815260200160405180910390206000019080519060200190611246929190613b3e565b508260018560405161125891906144f4565b9081526020016040518091039020600101908051906020019061127c929190613b3e565b503360018560405161128e91906144f4565b908152602001604051809103902060040160006101000a81548173ffffffffffffffffffffffffffffffffffffffff021916908373ffffffffffffffffffffffffffffffffffffffff16021790555060006001856040516112ef91906144f4565b908152602001604051809103902060020160006101000a81548160ff021916908360ff1602179055506040518060400160405280600181526020017f300000000000000000000000000000000000000000000000000000000000000081525060018560405161135e91906144f4565b90815260200160405180910390206005019080519060200190611382929190613b3e565b503360018560405161139491906144f4565b908152602001604051809103902060060160006101000a81548173ffffffffffffffffffffffffffffffffffffffff021916908373ffffffffffffffffffffffffffffffffffffffff160217905550426001856040516113f491906144f4565b9081526020016040518091039020600701819055506002849080600181540180825580915050906001820390600052602060002001600090919290919091509080519060200190611446929190613b3e565b50506001915050611458565b60009150505b92915050565b60008060009054906101000a900473ffffffffffffffffffffffffffffffffffffffff16905090565b6060806006805490506040519080825280602002602001820160405280156114c957816020015b6114b6613bbe565b8152602001906001900390816114ae5790505b509050600080905060008090505b600680549050811015611860578473ffffffffffffffffffffffffffffffffffffffff1660056006838154811061150a57fe5b90600052602060002001604051611521919061450b565b908152602001604051809103902060020160009054906101000a900473ffffffffffffffffffffffffffffffffffffffff1673ffffffffffffffffffffffffffffffffffffffff161480156115be57506001151560056006838154811061158457fe5b9060005260206000200160405161159b919061450b565b908152602001604051809103902060020160149054906101000a900460ff161515145b156118535760405180608001604052806005600684815481106115dd57fe5b906000526020600020016040516115f4919061450b565b90815260200160405180910390206000018054600181600116156101000203166002900480601f0160208091040260200160405190810160405280929190818152602001828054600181600116156101000203166002900480156116995780601f1061166e57610100808354040283529160200191611699565b820191906000526020600020905b81548152906001019060200180831161167c57829003601f168201915b505050505081526020016005600684815481106116b257fe5b906000526020600020016040516116c9919061450b565b90815260200160405180910390206001018054600181600116156101000203166002900480601f01602080910402602001604051908101604052809291908181526020018280546001816001161561010002031660029004801561176e5780601f106117435761010080835404028352916020019161176e565b820191906000526020600020905b81548152906001019060200180831161175157829003601f168201915b5050505050815260200160056006848154811061178757fe5b9060005260206000200160405161179e919061450b565b908152602001604051809103902060020160009054906101000a900473ffffffffffffffffffffffffffffffffffffffff1673ffffffffffffffffffffffffffffffffffffffff1681526020016005600684815481106117fa57fe5b90600052602060002001604051611811919061450b565b908152602001604051809103902060020160149054906101000a900460ff16151581525083838060010194508151811061184757fe5b60200260200101819052505b80806001019150506114d7565b508151600360008673ffffffffffffffffffffffffffffffffffffffff1673ffffffffffffffffffffffffffffffffffffffff168152602001908152602001600020600401819055508192505050919050565b60036020528060005260406000206000915090508060000160009054906101000a900473ffffffffffffffffffffffffffffffffffffffff1690806001018054600181600116156101000203166002900480601f0160208091040260200160405190810160405280929190818152602001828054600181600116156101000203166002900480156119855780601f1061195a57610100808354040283529160200191611985565b820191906000526020600020905b81548152906001019060200180831161196857829003601f168201915b505050505090806002018054600181600116156101000203166002900480601f016020809104026020016040519081016040528092919081815260200182805460018160011615610100020316600290048015611a235780601f106119f857610100808354040283529160200191611a23565b820191906000526020600020905b815481529060010190602001808311611a0657829003601f168201915b5050505050908060030154908060040154908060050154905086565b6000806000905060008090505b600480549050811015611ad6573373ffffffffffffffffffffffffffffffffffffffff1660048281548110611a7d57fe5b9060005260206000200160009054906101000a900473ffffffffffffffffffffffffffffffffffffffff1673ffffffffffffffffffffffffffffffffffffffff161415611ac957600191505b8080600101915050611a4c565b506000811415611aea576000915050611b61565b60008090505b600280549050811015611b5a57611b1d60028281548110611b0d57fe5b9060005260206000200185613974565b15611b4d57600184604051611b3291906144f4565b90815260200160405180910390206003015492505050611b61565b8080600101915050611af0565b5060009150505b919050565b6000806000905060008090505b600480549050811015611bfd573373ffffffffffffffffffffffffffffffffffffffff1660048281548110611ba457fe5b9060005260206000200160009054906101000a900473ffffffffffffffffffffffffffffffffffffffff1673ffffffffffffffffffffffffffffffffffffffff161415611bf057600191505b8080600101915050611b73565b506000811415611c11576000915050611ef8565b3373ffffffffffffffffffffffffffffffffffffffff168373ffffffffffffffffffffffffffffffffffffffff161415611c4f576000915050611ef8565b60011515600360008573ffffffffffffffffffffffffffffffffffffffff1673ffffffffffffffffffffffffffffffffffffffff16815260200190815260200160002060060160003373ffffffffffffffffffffffffffffffffffffffff1673ffffffffffffffffffffffffffffffffffffffff16815260200190815260200160002060000160149054906101000a900460ff1615151415611cf5576000915050611ef8565b600360008473ffffffffffffffffffffffffffffffffffffffff1673ffffffffffffffffffffffffffffffffffffffff16815260200190815260200160002060050160008154809291906001019190505550600360008473ffffffffffffffffffffffffffffffffffffffff1673ffffffffffffffffffffffffffffffffffffffff16815260200190815260200160002060050154600360008573ffffffffffffffffffffffffffffffffffffffff1673ffffffffffffffffffffffffffffffffffffffff168152602001908152602001600020600301819055506001600360008573ffffffffffffffffffffffffffffffffffffffff1673ffffffffffffffffffffffffffffffffffffffff16815260200190815260200160002060060160003373ffffffffffffffffffffffffffffffffffffffff1673ffffffffffffffffffffffffffffffffffffffff16815260200190815260200160002060000160146101000a81548160ff02191690831515021790555042600360008573ffffffffffffffffffffffffffffffffffffffff1673ffffffffffffffffffffffffffffffffffffffff16815260200190815260200160002060060160003373ffffffffffffffffffffffffffffffffffffffff1673ffffffffffffffffffffffffffffffffffffffff1681526020019081526020016000206001018190555060019150505b919050565b600181805160208101820180518482526020830160208501208183528095505050505050600091509050806000018054600181600116156101000203166002900480601f016020809104026020016040519081016040528092919081815260200182805460018160011615610100020316600290048015611fbf5780601f10611f9457610100808354040283529160200191611fbf565b820191906000526020600020905b815481529060010190602001808311611fa257829003601f168201915b505050505090806001018054600181600116156101000203166002900480601f01602080910402602001604051908101604052809291908181526020018280546001816001161561010002031660029004801561205d5780601f106120325761010080835404028352916020019161205d565b820191906000526020600020905b81548152906001019060200180831161204057829003601f168201915b5050505050908060020160009054906101000a900460ff16908060030154908060040160009054906101000a900473ffffffffffffffffffffffffffffffffffffffff1690806005018054600181600116156101000203166002900480601f01602080910402602001604051908101604052809291908181526020018280546001816001161561010002031660029004801561213a5780601f1061210f5761010080835404028352916020019161213a565b820191906000526020600020905b81548152906001019060200180831161211d57829003601f168201915b5050505050908060060160009054906101000a900473ffffffffffffffffffffffffffffffffffffffff16908060070154905088565b60008060009054906101000a900473ffffffffffffffffffffffffffffffffffffffff1673ffffffffffffffffffffffffffffffffffffffff163373ffffffffffffffffffffffffffffffffffffffff1614612201576040517f08c379a00000000000000000000000000000000000000000000000000000000081526004016121f89061473d565b60405180910390fd5b60008090505b600480549050811015612401578273ffffffffffffffffffffffffffffffffffffffff166004828154811061223857fe5b9060005260206000200160009054906101000a900473ffffffffffffffffffffffffffffffffffffffff1673ffffffffffffffffffffffffffffffffffffffff1614156123f457600360008473ffffffffffffffffffffffffffffffffffffffff1673ffffffffffffffffffffffffffffffffffffffff168152602001908152602001600020600080820160006101000a81549073ffffffffffffffffffffffffffffffffffffffff02191690556001820160006122f69190613bfe565b6002820160006123069190613bfe565b600382016000905560048201600090556005820160009055505060006001820190505b6004805490508110156123d3576004818154811061234357fe5b9060005260206000200160009054906101000a900473ffffffffffffffffffffffffffffffffffffffff166004600183038154811061237e57fe5b9060005260206000200160006101000a81548173ffffffffffffffffffffffffffffffffffffffff021916908373ffffffffffffffffffffffffffffffffffffffff1602179055508080600101915050612329565b5060048054809190600190036123e99190613c46565b506001915050612407565b8080600101915050612207565b50600090505b919050565b600080600090505b6004805490508110156124e4578273ffffffffffffffffffffffffffffffffffffffff166004828154811061244557fe5b9060005260206000200160009054906101000a900473ffffffffffffffffffffffffffffffffffffffff1673ffffffffffffffffffffffffffffffffffffffff1614156124d757600360008473ffffffffffffffffffffffffffffffffffffffff1673ffffffffffffffffffffffffffffffffffffffff168152602001908152602001600020600301549150506124ea565b8080600101915050612414565b50600090505b919050565b60008060009054906101000a900473ffffffffffffffffffffffffffffffffffffffff1673ffffffffffffffffffffffffffffffffffffffff163373ffffffffffffffffffffffffffffffffffffffff1614612580576040517f08c379a00000000000000000000000000000000000000000000000000000000081526004016125779061473d565b60405180910390fd5b60008090505b600480549050811015612615578373ffffffffffffffffffffffffffffffffffffffff16600482815481106125b757fe5b9060005260206000200160009054906101000a900473ffffffffffffffffffffffffffffffffffffffff1673ffffffffffffffffffffffffffffffffffffffff161415612608576000915050612888565b8080600101915050612586565b5082600360008573ffffffffffffffffffffffffffffffffffffffff1673ffffffffffffffffffffffffffffffffffffffff16815260200190815260200160002060000160006101000a81548173ffffffffffffffffffffffffffffffffffffffff021916908373ffffffffffffffffffffffffffffffffffffffff16021790555083600360008573ffffffffffffffffffffffffffffffffffffffff1673ffffffffffffffffffffffffffffffffffffffff16815260200190815260200160002060010190805190602001906126ed929190613b3e565b5081600360008573ffffffffffffffffffffffffffffffffffffffff1673ffffffffffffffffffffffffffffffffffffffff1681526020019081526020016000206002019080519060200190612744929190613b3e565b506000600360008573ffffffffffffffffffffffffffffffffffffffff1673ffffffffffffffffffffffffffffffffffffffff168152602001908152602001600020600301819055506000600360008573ffffffffffffffffffffffffffffffffffffffff1673ffffffffffffffffffffffffffffffffffffffff168152602001908152602001600020600401819055506000600360008573ffffffffffffffffffffffffffffffffffffffff1673ffffffffffffffffffffffffffffffffffffffff1681526020019081526020016000206005018190555060048390806001815401808255809150509060018203906000526020600020016000909192909190916101000a81548173ffffffffffffffffffffffffffffffffffffffff021916908373ffffffffffffffffffffffffffffffffffffffff16021790555050600190505b9392505050565b60008073ffffffffffffffffffffffffffffffffffffffff166005836040516128b891906144f4565b908152602001604051809103902060020160009054906101000a900473ffffffffffffffffffffffffffffffffffffffff1673ffffffffffffffffffffffffffffffffffffffff1614612940576040517f08c379a00000000000000000000000000000000000000000000000000000000081526004016129379061479d565b60405180910390fd5b600060026004805490508161295157fe5b04905080600360003373ffffffffffffffffffffffffffffffffffffffff1673ffffffffffffffffffffffffffffffffffffffff1681526020019081526020016000206003015410156129dd5760006005846040516129b091906144f4565b908152602001604051809103902060020160146101000a81548160ff021916908315150217905550612a18565b60016005846040516129ef91906144f4565b908152602001604051809103902060020160146101000a81548160ff0219169083151502179055505b82600584604051612a2991906144f4565b90815260200160405180910390206001019080519060200190612a4d929190613b3e565b5083600584604051612a5f91906144f4565b90815260200160405180910390206000019080519060200190612a83929190613b3e565b5033600584604051612a9591906144f4565b908152602001604051809103902060020160006101000a81548173ffffffffffffffffffffffffffffffffffffffff021916908373ffffffffffffffffffffffffffffffffffffffff1602179055506006839080600181540180825580915050906001820390600052602060002001600090919290919091509080519060200190612b21929190613b3e565b5050600191505092915050565b6000806000905060008090505b600680549050811015612ca657612b88600560068381548110612b5a57fe5b90600052602060002001604051612b71919061450b565b908152602001604051809103902060000186613974565b15612c9957600584604051612b9d91906144f4565b908152602001604051809103902060008082016000612bbc9190613bfe565b600182016000612bcc9190613bfe565b6002820160006101000a81549073ffffffffffffffffffffffffffffffffffffffff02191690556002820160146101000a81549060ff0219169055505060006001820190505b600680549050811015612c7d5760068181548110612c2c57fe5b9060005260206000200160066001830381548110612c4657fe5b906000526020600020019080546001816001161561010002031660029004612c6f929190613c72565b508080600101915050612c12565b506006805480919060019003612c939190613cf9565b50600190505b8080600101915050612b3b565b508091505092915050565b600080600090505b600480549050811015612f08573373ffffffffffffffffffffffffffffffffffffffff166003600060048481548110612cee57fe5b9060005260206000200160009054906101000a900473ffffffffffffffffffffffffffffffffffffffff1673ffffffffffffffffffffffffffffffffffffffff1673ffffffffffffffffffffffffffffffffffffffff16815260200190815260200160002060000160009054906101000a900473ffffffffffffffffffffffffffffffffffffffff1673ffffffffffffffffffffffffffffffffffffffff161415612efb576000600260048054905081612da457fe5b049050806003600060048581548110612db957fe5b9060005260206000200160009054906101000a900473ffffffffffffffffffffffffffffffffffffffff1673ffffffffffffffffffffffffffffffffffffffff1673ffffffffffffffffffffffffffffffffffffffff168152602001908152602001600020600301541015612e63576040517f08c379a0000000000000000000000000000000000000000000000000000000008152600401612e5a9061475d565b60405180910390fd5b83600186604051612e7491906144f4565b90815260200160405180910390206005019080519060200190612e98929190613b3e565b5033600186604051612eaa91906144f4565b908152602001604051809103902060060160006101000a81548173ffffffffffffffffffffffffffffffffffffffff021916908373ffffffffffffffffffffffffffffffffffffffff160217905550505b8080600101915050612cb9565b5092915050565b600060608060036000600186604051612f2891906144f4565b908152602001604051809103902060060160009054906101000a900473ffffffffffffffffffffffffffffffffffffffff1673ffffffffffffffffffffffffffffffffffffffff1673ffffffffffffffffffffffffffffffffffffffff16815260200190815260200160002060000160009054906101000a900473ffffffffffffffffffffffffffffffffffffffff1660036000600187604051612fcc91906144f4565b908152602001604051809103902060060160009054906101000a900473ffffffffffffffffffffffffffffffffffffffff1673ffffffffffffffffffffffffffffffffffffffff1673ffffffffffffffffffffffffffffffffffffffff1681526020019081526020016000206001016003600060018860405161304f91906144f4565b908152602001604051809103902060060160009054906101000a900473ffffffffffffffffffffffffffffffffffffffff1673ffffffffffffffffffffffffffffffffffffffff1673ffffffffffffffffffffffffffffffffffffffff168152602001908152602001600020600201818054600181600116156101000203166002900480601f0160208091040260200160405190810160405280929190818152602001828054600181600116156101000203166002900480156131535780601f1061312857610100808354040283529160200191613153565b820191906000526020600020905b81548152906001019060200180831161313657829003601f168201915b50505050509150808054600181600116156101000203166002900480601f0160208091040260200160405190810160405280929190818152602001828054600181600116156101000203166002900480156131ef5780601f106131c4576101008083540402835291602001916131ef565b820191906000526020600020905b8154815290600101906020018083116131d257829003601f168201915b505050505090509250925092509193909250565b600581805160208101820180518482526020830160208501208183528095505050505050600091509050806000018054600181600116156101000203166002900480601f0160208091040260200160405190810160405280929190818152602001828054600181600116156101000203166002900480156132c55780601f1061329a576101008083540402835291602001916132c5565b820191906000526020600020905b8154815290600101906020018083116132a857829003601f168201915b505050505090806001018054600181600116156101000203166002900480601f0160208091040260200160405190810160405280929190818152602001828054600181600116156101000203166002900480156133635780601f1061333857610100808354040283529160200191613363565b820191906000526020600020905b81548152906001019060200180831161334657829003601f168201915b5050505050908060020160009054906101000a900473ffffffffffffffffffffffffffffffffffffffff16908060020160149054906101000a900460ff16905084565b6000806000905060008090505b60048054905081101561343d573373ffffffffffffffffffffffffffffffffffffffff16600482815481106133e457fe5b9060005260206000200160009054906101000a900473ffffffffffffffffffffffffffffffffffffffff1673ffffffffffffffffffffffffffffffffffffffff16141561343057600191505b80806001019150506133b3565b506000811415613451576000915050613719565b60008090505b600280549050811015613712576134846002828154811061347457fe5b9060005260206000200186613974565b1561370557600060018660405161349b91906144f4565b908152602001604051809103902060020160006101000a81548160ff021916908360ff160217905550836001866040516134d591906144f4565b908152602001604051809103902060010190805190602001906134f9929190613b3e565b503360018660405161350b91906144f4565b908152602001604051809103902060060160006101000a81548173ffffffffffffffffffffffffffffffffffffffff021916908373ffffffffffffffffffffffffffffffffffffffff16021790555060008090505b6002805490508110156136f95761358d6002828154811061357d57fe5b9060005260206000200187613974565b156136ec576001866040516135a291906144f4565b9081526020016040518091039020600080820160006135c19190613bfe565b6001820160006135d19190613bfe565b6002820160006101000a81549060ff021916905560038201600090556004820160006101000a81549073ffffffffffffffffffffffffffffffffffffffff02191690556005820160006136249190613bfe565b6006820160006101000a81549073ffffffffffffffffffffffffffffffffffffffff02191690556007820160009055505060006001820190505b6002805490508110156136c9576002818154811061367857fe5b906000526020600020016002600183038154811061369257fe5b9060005260206000200190805460018160011615610100020316600290046136bb929190613c72565b50808060010191505061365e565b5060028054809190600190036136df9190613cf9565b5060019350505050613719565b8080600101915050613560565b50600192505050613719565b8080600101915050613457565b5060009150505b92915050565b6000806000905060008090505b6004805490508110156137b6573373ffffffffffffffffffffffffffffffffffffffff166004828154811061375d57fe5b9060005260206000200160009054906101000a900473ffffffffffffffffffffffffffffffffffffffff1673ffffffffffffffffffffffffffffffffffffffff1614156137a957600191505b808060010191505061372c565b5060008114156137ca57600091505061396f565b60008090505b600280549050811015613968576137fd600282815481106137ed57fe5b9060005260206000200185613974565b1561395b5760018460405161381291906144f4565b9081526020016040518091039020600080820160006138319190613bfe565b6001820160006138419190613bfe565b6002820160006101000a81549060ff021916905560038201600090556004820160006101000a81549073ffffffffffffffffffffffffffffffffffffffff02191690556005820160006138949190613bfe565b6006820160006101000a81549073ffffffffffffffffffffffffffffffffffffffff02191690556007820160009055505060006001820190505b60028054905081101561393957600281815481106138e857fe5b906000526020600020016002600183038154811061390257fe5b90600052602060002001908054600181600116156101000203166002900461392b929190613c72565b5080806001019150506138ce565b50600280548091906001900361394f9190613cf9565b5060019250505061396f565b80806001019150506137d0565b5060009150505b919050565b6000808390506060839050805182805460018160011615610100020316600290049050146139a757600092505050613aec565b60008090505b82805460018160011615610100020316600290049050811015613ae4578181815181106139d657fe5b60200101517f010000000000000000000000000000000000000000000000000000000000000090047f0100000000000000000000000000000000000000000000000000000000000000027effffffffffffffffffffffffffffffffffffffffffffffffffffffffffffff19168382815460018160011615610100020316600290048110613a5f57fe5b815460011615613a7e5790600052602060002090602091828204019190065b9054901a7f0100000000000000000000000000000000000000000000000000000000000000027effffffffffffffffffffffffffffffffffffffffffffffffffffffffffffff191614613ad75760009350505050613aec565b80806001019150506139ad565b506001925050505b92915050565b6040518060c00160405280600073ffffffffffffffffffffffffffffffffffffffff16815260200160608152602001606081526020016000815260200160008152602001600081525090565b828054600181600116156101000203166002900490600052602060002090601f016020900481019282601f10613b7f57805160ff1916838001178555613bad565b82800160010185558215613bad579182015b82811115613bac578251825591602001919060010190613b91565b5b509050613bba9190613d25565b5090565b60405180608001604052806060815260200160608152602001600073ffffffffffffffffffffffffffffffffffffffff1681526020016000151581525090565b50805460018160011615610100020316600290046000825580601f10613c245750613c43565b601f016020900490600052602060002090810190613c429190613d25565b5b50565b815481835581811115613c6d57818360005260206000209182019101613c6c9190613d25565b5b505050565b828054600181600116156101000203166002900490600052602060002090601f016020900481019282601f10613cab5780548555613ce8565b82800160010185558215613ce857600052602060002091601f016020900482015b82811115613ce7578254825591600101919060010190613ccc565b5b509050613cf59190613d25565b5090565b815481835581811115613d2057818360005260206000209182019101613d1f9190613d4a565b5b505050565b613d4791905b80821115613d43576000816000905550600101613d2b565b5090565b90565b613d7391905b80821115613d6f5760008181613d669190613bfe565b50600101613d50565b5090565b90565b600081359050613d85816149ea565b92915050565b600082601f830112613d9c57600080fd5b8135613daf613daa82614820565b6147f3565b91508082526020830160208301858383011115613dcb57600080fd5b613dd6838284614997565b50505092915050565b600082601f830112613df057600080fd5b8135613e03613dfe8261484c565b6147f3565b91508082526020830160208301858383011115613e1f57600080fd5b613e2a838284614997565b50505092915050565b600060208284031215613e4557600080fd5b6000613e5384828501613d76565b91505092915050565b600060208284031215613e6e57600080fd5b600082013567ffffffffffffffff811115613e8857600080fd5b613e9484828501613d8b565b91505092915050565b600060208284031215613eaf57600080fd5b600082013567ffffffffffffffff811115613ec957600080fd5b613ed584828501613ddf565b91505092915050565b600080600060608486031215613ef357600080fd5b600084013567ffffffffffffffff811115613f0d57600080fd5b613f1986828701613ddf565b9350506020613f2a86828701613d76565b925050604084013567ffffffffffffffff811115613f4757600080fd5b613f5386828701613ddf565b9150509250925092565b60008060408385031215613f7057600080fd5b600083013567ffffffffffffffff811115613f8a57600080fd5b613f9685828601613ddf565b925050602083013567ffffffffffffffff811115613fb357600080fd5b613fbf85828601613ddf565b9150509250929050565b6000613fd583836143cd565b905092915050565b6000613fe9838361445d565b905092915050565b613ffa81614942565b82525050565b61400981614942565b82525050565b600061401a826148ad565b61402481856148f3565b93508360208202850161403685614878565b8060005b8581101561407257848403895281516140538582613fc9565b945061405e836148d9565b925060208a0199505060018101905061403a565b50829750879550505050505092915050565b600061408f826148b8565b6140998185614904565b9350836020820285016140ab85614888565b8060005b858110156140e757848403895281516140c88582613fdd565b94506140d3836148e6565b925060208a019950506001810190506140af565b50829750879550505050505092915050565b61410281614954565b82525050565b61411181614954565b82525050565b6000614122826148ce565b61412c8185614926565b935061413c8185602086016149a6565b614145816149d9565b840191505092915050565b600061415b826148ce565b6141658185614937565b93506141758185602086016149a6565b80840191505092915050565b600061418c826148c3565b6141968185614915565b93506141a68185602086016149a6565b6141af816149d9565b840191505092915050565b60006141c5826148c3565b6141cf8185614926565b93506141df8185602086016149a6565b6141e8816149d9565b840191505092915050565b600081546001811660008114614210576001811461423557614279565b607f60028304166142218187614937565b955060ff1983168652808601935050614279565b600282046142438187614937565b955061424e85614898565b60005b8281101561427057815481890152600182019150602081019050614251565b82880195505050505b505092915050565b600061428e601883614926565b91507f4f6e6c792061646d696e732063616e206164642062616e6b00000000000000006000830152602082019050919050565b60006142ce602583614926565b91507f42616e6b2073686f756c64206861766520726174696e67206d6f72652074686160008301527f6e20302e350000000000000000000000000000000000000000000000000000006020830152604082019050919050565b6000614334601c83614926565b91507f4b59432064657461696c73206e6f7420766572696669656420796574000000006000830152602082019050919050565b6000614374603e83614926565b91507f54686973207573657220616c7265616479206861732061204b5943207265717560008301527f65737420776974682073616d65206461746120696e2070726f636573732e00006020830152604082019050919050565b600060c0830160008301516143e56000860182613ff1565b50602083015184820360208601526143fd8282614181565b915050604083015184820360408601526144178282614181565b915050606083015161442c60608601826144c7565b50608083015161443f60808601826144c7565b5060a083015161445260a08601826144c7565b508091505092915050565b6000608083016000830151848203600086015261447a8282614181565b915050602083015184820360208601526144948282614181565b91505060408301516144a96040860182613ff1565b5060608301516144bc60608601826140f9565b508091505092915050565b6144d081614980565b82525050565b6144df81614980565b82525050565b6144ee8161498a565b82525050565b60006145008284614150565b915081905092915050565b600061451782846141f3565b915081905092915050565b60006020820190506145376000830184614000565b92915050565b60006060820190506145526000830186614000565b81810360208301526145648185614117565b905081810360408301526145788184614117565b9050949350505050565b600060c0820190506145976000830189614000565b81810360208301526145a981886141ba565b905081810360408301526145bd81876141ba565b90506145cc60608301866144d6565b6145d960808301856144d6565b6145e660a08301846144d6565b979650505050505050565b6000602082019050818103600083015261460b818461400f565b905092915050565b6000602082019050818103600083015261462d8184614084565b905092915050565b6000602082019050818103600083015261464f8184614117565b905092915050565b6000608082019050818103600083015261467181876141ba565b9050818103602083015261468581866141ba565b90506146946040830185614000565b6146a16060830184614108565b95945050505050565b60006101008201905081810360008301526146c5818b6141ba565b905081810360208301526146d9818a6141ba565b90506146e860408301896144e5565b6146f560608301886144d6565b6147026080830187614000565b81810360a083015261471481866141ba565b905061472360c0830185614000565b61473060e08301846144d6565b9998505050505050505050565b6000602082019050818103600083015261475681614281565b9050919050565b60006020820190508181036000830152614776816142c1565b9050919050565b6000602082019050818103600083015261479681614327565b9050919050565b600060208201905081810360008301526147b681614367565b9050919050565b60006020820190506147d260008301846144d6565b92915050565b60006020820190506147ed60008301846144e5565b92915050565b6000604051905081810181811067ffffffffffffffff8211171561481657600080fd5b8060405250919050565b600067ffffffffffffffff82111561483757600080fd5b601f19601f8301169050602081019050919050565b600067ffffffffffffffff82111561486357600080fd5b601f19601f8301169050602081019050919050565b6000819050602082019050919050565b6000819050602082019050919050565b60008190508160005260206000209050919050565b600081519050919050565b600081519050919050565b600081519050919050565b600081519050919050565b6000602082019050919050565b6000602082019050919050565b600082825260208201905092915050565b600082825260208201905092915050565b600082825260208201905092915050565b600082825260208201905092915050565b600081905092915050565b600061494d82614960565b9050919050565b60008115159050919050565b600073ffffffffffffffffffffffffffffffffffffffff82169050919050565b6000819050919050565b600060ff82169050919050565b82818337600083830152505050565b60005b838110156149c45780820151818401526020810190506149a9565b838111156149d3576000848401525b50505050565b6000601f19601f8301169050919050565b6149f381614942565b81146149fe57600080fd5b5056fea365627a7a7230582087c55a4dfe78eaaeb919f73437a34a57d74a3454fea917ea88a980a0451db8006c6578706572696d656e74616cf564736f6c63430005090040",
  "source": "pragma solidity ^0.5.9;\r\npragma experimental ABIEncoderV2;\r\n\r\ncontract kyc {\r\n    address admin;\r\n\r\n    /*\r\n    Struct for a customer\r\n     */\r\n    struct Customer {\r\n        string userName;\r\n        string data_hash;\r\n        uint8 upvotes;\r\n        uint256 rating;\r\n        address bank;\r\n        string password;\r\n        address lastChanged;\r\n        uint256 timestamp;\r\n    }\r\n\r\n    /*\r\n    Struct for a Bank's votes mapping\r\n     */\r\n    struct BankVotes {\r\n        address votedBank;\r\n        bool hasVoted;\r\n        uint256 timestamp;\r\n    }\r\n\r\n    /*struct for a Bank */\r\n    struct Bank {\r\n        address ethAddress; //unique\r\n        string bankName;\r\n        string regNumber; //unique\r\n        uint256 rating;\r\n        uint256 kycCount;\r\n        uint256 upvotes;\r\n        mapping(address => BankVotes) bankVote;\r\n    }\r\n\r\n    /*new struct to return bank, as original bank has nested mapping*/\r\n    struct BankReturn {\r\n        address ethAddress;\r\n        string bankName;\r\n        string regNumber;\r\n        uint256 rating;\r\n        uint256 kycCount;\r\n        uint256 upvotes;\r\n    }\r\n\r\n    /*\r\n    Struct for a KYC Request\r\n     */\r\n    struct KYCRequest {\r\n        string userName;\r\n        string data_hash; //unique\r\n        address bank;\r\n        bool isAllowed;\r\n    }\r\n\r\n    /*\r\n    Mapping a customer's username to the Customer struct\r\n    We also keep an array of all keys of the mapping to be able to loop through them when required.\r\n     */\r\n    mapping(string => Customer) public customers;\r\n    string[] customerNames;\r\n\r\n    /*\r\n    Mapping a bank's address to the Bank Struct\r\n    We also keep an array of all keys of the mapping to be able to loop through them when required.\r\n     */\r\n    mapping(address => Bank) public banks;\r\n    address[] bankAddresses;\r\n\r\n    /*\r\n    Mapping a customer's Data Hash to KYC request captured for that customer.\r\n    This mapping is used to keep track of every kycRequest initiated for every customer by a bank.\r\n     */\r\n    mapping(string => KYCRequest) public kycRequests;\r\n    string[] customerDataList;\r\n\r\n    /*\r\n    Mapping a customer's user name with a bank's address\r\n    This mapping is used to keep track of every upvote given by a bank to a customer\r\n     */\r\n    mapping(string => mapping(address => uint256)) upvotes;\r\n\r\n    /**\r\n     * Constructor of the contract.\r\n     * We save the contract's admin as the account which deployed this contract.\r\n     */\r\n    constructor() public {\r\n        admin = msg.sender;\r\n    }\r\n\r\n    // Functions for KYC Requests\r\n    // Owners  - banks\r\n    //event Check(uint256 check, uint256 rating, bool lol);\r\n    function addKycRequest(string memory _userName, string memory _customerData)\r\n        public\r\n        returns (uint8)\r\n    {\r\n        // Check that the user's KYC has not been done before, the Bank is a valid bank and it is allowed to perform KYC.\r\n        require(\r\n            kycRequests[_customerData].bank == address(0),\r\n            \"This user already has a KYC request with same data in process.\"\r\n        );\r\n\r\n        uint256 check = bankAddresses.length / uint256(2); //bankAddresses/2 gives half of banks votes, so if rating is more than that, it means its > 0.5\r\n        /*check for rating of bank is Allowed validation*/\r\n        //emit Check(check, banks[msg.sender].rating, banks[msg.sender].rating < check);\r\n        if (banks[msg.sender].rating < check) {\r\n            kycRequests[_customerData].isAllowed = false;\r\n        } else {\r\n            kycRequests[_customerData].isAllowed = true;\r\n        }\r\n        kycRequests[_customerData].data_hash = _customerData;\r\n        kycRequests[_customerData].userName = _userName;\r\n        kycRequests[_customerData].bank = msg.sender;\r\n        customerDataList.push(_customerData);\r\n        return 1;\r\n    }\r\n\r\n    function removeKYCRequest(\r\n        string memory _userName,\r\n        string memory _customerData\r\n    ) public returns (uint8) {\r\n        //improve this function\r\n        uint8 i = 0;\r\n        for (uint256 i = 0; i < customerDataList.length; i++) {\r\n            if (\r\n                stringsEquals(\r\n                    kycRequests[customerDataList[i]].userName,\r\n                    _userName\r\n                )\r\n            ) {\r\n                delete kycRequests[_customerData];\r\n                for (uint256 j = i + 1; j < customerDataList.length; j++) {\r\n                    customerDataList[j - 1] = customerDataList[j];\r\n                }\r\n                customerDataList.length--;\r\n                i = 1;\r\n            }\r\n        }\r\n        return i; // 0 is returned if no request with the input username is found.\r\n    }\r\n\r\n    /*Debugging purposes*/\r\n    function returnAdmin() public view returns (address) {\r\n        return admin;\r\n    }\r\n\r\n    /*Customer related function */\r\n    /*Owner - Bank */\r\n    function addCustomer(string memory _userName, string memory _customerData)\r\n        public\r\n        returns (uint8)\r\n    {\r\n        if (stringsEquals(customers[_userName].data_hash, _customerData)) {\r\n            return 0;\r\n        }\r\n        uint256 flag = 0;\r\n        for (uint256 i = 0; i < bankAddresses.length; i++) {\r\n            if (bankAddresses[i] == msg.sender) {\r\n                flag = 1;\r\n            }\r\n        }\r\n        if (flag == 0) {\r\n            return 0;\r\n        }\r\n        require(\r\n            kycRequests[_customerData].isAllowed == true,\r\n            \"KYC details not verified yet\"\r\n        );\r\n        if (kycRequests[_customerData].isAllowed) {\r\n            customers[_userName].userName = _userName;\r\n            customers[_userName].data_hash = _customerData;\r\n            customers[_userName].bank = msg.sender;\r\n            customers[_userName].upvotes = 0;\r\n            customers[_userName].password = \"0\";\r\n            customers[_userName].lastChanged = msg.sender;\r\n            customers[_userName].timestamp = now;\r\n            customerNames.push(_userName);\r\n            return 1;\r\n        } else {\r\n            return 0;\r\n        }\r\n    }\r\n\r\n    function removeCustomer(string memory _userName) public returns (uint8) {\r\n        uint256 flag = 0;\r\n        for (uint256 i = 0; i < bankAddresses.length; i++) {\r\n            if (bankAddresses[i] == msg.sender) {\r\n                flag = 1;\r\n            }\r\n        }\r\n        if (flag == 0) {\r\n            return 0;\r\n        }\r\n        for (uint256 i = 0; i < customerNames.length; i++) {\r\n            if (stringsEquals(customerNames[i], _userName)) {\r\n                delete customers[_userName];\r\n                for (uint256 j = i + 1; j < customerNames.length; j++) {\r\n                    customerNames[j - 1] = customerNames[j];\r\n                }\r\n                customerNames.length--;\r\n                return 1;\r\n            }\r\n        }\r\n        return 0;\r\n    }\r\n\r\n    function modifyCustomer(\r\n        string memory _userName,\r\n        string memory _newcustomerData\r\n    ) public returns (uint8) {\r\n        uint256 flag = 0;\r\n        for (uint256 i = 0; i < bankAddresses.length; i++) {\r\n            if (bankAddresses[i] == msg.sender) {\r\n                flag = 1;\r\n            }\r\n        }\r\n        if (flag == 0) {\r\n            return 0;\r\n        }\r\n        for (uint256 i = 0; i < customerNames.length; i++) {\r\n            if (stringsEquals(customerNames[i], _userName)) {\r\n                customers[_userName].upvotes = 0;\r\n                customers[_userName].data_hash = _newcustomerData;\r\n                customers[_userName].lastChanged = msg.sender;\r\n                for (uint256 k = 0; k < customerNames.length; k++) {\r\n                    if (stringsEquals(customerNames[k], _userName)) {\r\n                        delete customers[_userName];\r\n                        for (uint256 j = k + 1; j < customerNames.length; j++) {\r\n                            customerNames[j - 1] = customerNames[j];\r\n                        }\r\n                        customerNames.length--;\r\n                        return 1;\r\n                    }\r\n                }\r\n                return 1;\r\n            }\r\n        }\r\n        return 0;\r\n    }\r\n\r\n    function getCustomerRating(string memory _userName)\r\n        public\r\n        view\r\n        returns (uint256)\r\n    {\r\n        uint256 flag = 0;\r\n        for (uint256 i = 0; i < bankAddresses.length; i++) {\r\n            if (bankAddresses[i] == msg.sender) {\r\n                flag = 1;\r\n            }\r\n        }\r\n        if (flag == 0) {\r\n            return 0;\r\n        }\r\n        for (uint256 i = 0; i < customerNames.length; i++) {\r\n            if (stringsEquals(customerNames[i], _userName)) {\r\n                return customers[_userName].rating;\r\n            }\r\n        }\r\n        return 0;\r\n    }\r\n\r\n    function viewCustomer(string memory _userName, string memory _password)\r\n        public\r\n        view\r\n        returns (string memory)\r\n    {\r\n        if (stringsEquals(customers[_userName].password, _password)) {\r\n            return (customers[_userName].data_hash);\r\n        } else if (stringsEquals(customers[_userName].password, \"0\")) {\r\n            return (customers[_userName].data_hash);\r\n        } else {\r\n            return \"0\";\r\n        }\r\n    }\r\n\r\n    function retrieveHistoryOf(string memory _userName)\r\n        public\r\n        view\r\n        returns (\r\n            address,\r\n            string memory,\r\n            string memory\r\n        )\r\n    {\r\n        return (\r\n            banks[customers[_userName].lastChanged].ethAddress,\r\n            banks[customers[_userName].lastChanged].bankName,\r\n            banks[customers[_userName].lastChanged].regNumber\r\n        );\r\n    }\r\n\r\n    function setCustomerPassword(\r\n        string memory _userName,\r\n        string memory _password\r\n    ) public returns (uint256) {\r\n        for (uint256 i = 0; i < bankAddresses.length; i++) {\r\n            if (banks[bankAddresses[i]].ethAddress == msg.sender) {\r\n                uint256 check = (bankAddresses.length / uint256(2));\r\n                require(banks[bankAddresses[i]].rating >= check,\"Bank should have rating more than 0.5\");\r\n                customers[_userName].password = _password;\r\n                customers[_userName].lastChanged = msg.sender;\r\n            }\r\n        }\r\n    }\r\n\r\n    /*Bank Related Function  */\r\n    /*Owner - Banks*/\r\n\r\n    function addUpvoteTo(address _bankAddr) public payable returns (uint256) {\r\n        // you are stuck here rethink\r\n        uint256 flag = 0;\r\n        for (uint256 i = 0; i < bankAddresses.length; i++) {\r\n            if (bankAddresses[i] == msg.sender) {\r\n                flag = 1;\r\n            }\r\n        }\r\n        if (flag == 0) {\r\n            return 0;\r\n        }\r\n        if (_bankAddr == msg.sender) {\r\n            return 0;\r\n        }\r\n        if (banks[_bankAddr].bankVote[msg.sender].hasVoted == true) {\r\n            return 0;\r\n        }\r\n        banks[_bankAddr].upvotes++;\r\n        banks[_bankAddr].rating = banks[_bankAddr].upvotes;\r\n        banks[_bankAddr].bankVote[msg.sender].hasVoted = true;\r\n        banks[_bankAddr].bankVote[msg.sender].timestamp = now;\r\n        return 1;\r\n    }\r\n\r\n    function getBankRating(address _address) public view returns (uint) {\r\n        for (uint256 i = 0; i < bankAddresses.length; i++) {\r\n            if (bankAddresses[i] == _address) {\r\n                return banks[_address].rating;\r\n            }\r\n        }\r\n        return 0;\r\n    }\r\n\r\n    function getBankDetails(address _bankAddr)\r\n        public\r\n        view\r\n        returns (BankReturn[] memory)\r\n    {\r\n        BankReturn[] memory toBeReturnedBankDetails = new BankReturn[](\r\n            bankAddresses.length\r\n        );\r\n        uint256 x = 0; //temp variable\r\n        for (uint256 i = 0; i < bankAddresses.length; i++) {\r\n            if (banks[bankAddresses[i]].ethAddress == _bankAddr) {\r\n                toBeReturnedBankDetails[x++] = BankReturn({\r\n                    ethAddress: banks[bankAddresses[i]].ethAddress,\r\n                    bankName: banks[bankAddresses[i]].bankName,\r\n                    regNumber: banks[bankAddresses[i]].regNumber,\r\n                    rating: banks[bankAddresses[i]].rating,\r\n                    kycCount: banks[bankAddresses[i]].kycCount,\r\n                    upvotes: banks[bankAddresses[i]].upvotes\r\n                });\r\n            }\r\n        }\r\n        //toBeReturnedBankDetails.length--;\r\n        return toBeReturnedBankDetails;\r\n    }\r\n\r\n    function getBankRequests(address _bankAddr)\r\n        public\r\n        returns (KYCRequest[] memory)\r\n    {\r\n        // cant declare as view because we are modifying bankRequests acc to solc\r\n        KYCRequest[] memory toBeReturnedBanks = new KYCRequest[](\r\n            customerDataList.length\r\n        );\r\n        uint256 x = 0; //temp var\r\n        for (uint256 i = 0; i < customerDataList.length; i++) {\r\n            if (\r\n                (kycRequests[customerDataList[i]].bank == _bankAddr) &&\r\n                (kycRequests[customerDataList[i]].isAllowed == true)\r\n            ) {\r\n                toBeReturnedBanks[x++] = KYCRequest({\r\n                    data_hash: kycRequests[customerDataList[i]].data_hash,\r\n                    userName: kycRequests[customerDataList[i]].userName,\r\n                    bank: kycRequests[customerDataList[i]].bank,\r\n                    isAllowed: kycRequests[customerDataList[i]].isAllowed\r\n                });\r\n            }\r\n        }\r\n        banks[_bankAddr].kycCount = toBeReturnedBanks.length; // check this unnecessary logic later\r\n        return toBeReturnedBanks;\r\n    }\r\n\r\n    function Upvote(string memory _userName) public returns (uint8) {\r\n        uint256 flag = 0;\r\n        for (uint256 i = 0; i < bankAddresses.length; i++) {\r\n            if (bankAddresses[i] == msg.sender) {\r\n                flag = 1;\r\n            }\r\n        }\r\n        if (flag == 0) {\r\n            return 0;\r\n        }\r\n\r\n        for (uint256 i = 0; i < customerNames.length; i++) {\r\n            if (stringsEquals(customerNames[i], _userName)) {\r\n                //if(!upvotes[_userName][msg.sender]){\r\n                customers[_userName].upvotes++;\r\n                customers[_userName].rating = customers[_userName].upvotes;\r\n                upvotes[_userName][msg.sender] = now; //storing the timestamp when vote was casted, not required though, additional\r\n                customers[_userName].lastChanged = msg.sender;\r\n                return 1;\r\n                //}\r\n            }\r\n        }\r\n        return 0;\r\n    }\r\n\r\n    /*Admin Functions */\r\n    /*Owners - Admin*/\r\n    function addbank(\r\n        string memory _bankName,\r\n        address _bankAddr,\r\n        string memory _bankRegNo\r\n    ) public returns (uint256) {\r\n        require(msg.sender == admin, \"Only admins can add bank\");\r\n\r\n        for (uint256 i = 0; i < bankAddresses.length; i++) {\r\n            if (bankAddresses[i] == _bankAddr) {\r\n                return 0;\r\n            }\r\n        }\r\n        banks[_bankAddr].ethAddress = _bankAddr;\r\n        banks[_bankAddr].bankName = _bankName;\r\n        banks[_bankAddr].regNumber = _bankRegNo;\r\n        banks[_bankAddr].rating = 0;\r\n        banks[_bankAddr].kycCount = 0;\r\n        banks[_bankAddr].upvotes = 0;\r\n        bankAddresses.push(_bankAddr);\r\n        return 1;\r\n    }\r\n\r\n    function deleteBank(address _bankAddr) public returns (uint8) {\r\n        require(msg.sender == admin, \"Only admins can add bank\");\r\n        for (uint256 i = 0; i < bankAddresses.length; i++) {\r\n            if (bankAddresses[i] == _bankAddr) {\r\n                delete banks[_bankAddr];\r\n                for (uint256 j = i + 1; j < bankAddresses.length; j++) {\r\n                    bankAddresses[j - 1] = bankAddresses[j];\r\n                }\r\n                bankAddresses.length--;\r\n                return 1;\r\n            }\r\n        }\r\n        return 0;\r\n    }\r\n\r\n    /*String Compare Function */\r\n    function stringsEquals(string storage _a, string memory _b)\r\n        internal\r\n        view\r\n        returns (bool)\r\n    {\r\n        bytes storage a = bytes(_a);\r\n        bytes memory b = bytes(_b);\r\n        if (a.length != b.length) return false;\r\n        // @todo unroll this loop\r\n        for (uint256 i = 0; i < a.length; i++) {\r\n            if (a[i] != b[i]) return false;\r\n        }\r\n        return true;\r\n    }\r\n}\r\n",
  "sourcePath": "D:/KYCSolution/contracts/KYC.sol",
  "compiler": {
    "name": "solc",
    "version": "0.5.9+commit.e560f70d.Emscripten.clang"
  },
  "schemaVersion": "3.0.2",
  "updatedAt": "2020-06-14T18:29:52.054Z",
  "devdoc": {
    "methods": {}
  },
  "userdoc": {
    "methods": {
      "constructor": "Constructor of the contract.\r We save the contract's admin as the account which deployed this contract.\r"
    }
  }
}